20191111BH201911110910000003000210002100010387544                         164508
20191111BI2019111109100000030010000834075000000915008890043040000000ACH        0
20191111BI2019111109100000030020000834080000010557559773694040000000ACH        0
20191111BI2019111109100000030030000834086000006479298903450040000000ACH        0
20191111BI2019111109100000030040000834093000000647932369514040000000ACH        0
20191111BI2019111109100000030050000834103000019437849782501040000000ACH        0
20191111BI2019111109100000030060000834104000000990882761252040000000ACH        0
20191111BI2019111109100000030070000834105000000647931161252040000000ACH        0
20191111BI2019111109100000030080000834107000003483812161177040000000ACH        0
20191111BI2019111109100000030090000834156000005003983185244040000000ACH        0
20191111BI2019111109100000030100000834181000007446819688100010000000ACH        0
20191111BI2019111109100000030110000834187000001188994430107040000000ACH        0
20191111BI2019111109100000030120000834216000009677004685263040000000ACH        0
20191111BI2019111109100000030130000834221000002236047001270040000000ACH        0
20191111BI2019111109100000030140000834228000006718522396300010000000ACH        0
20191111BI2019111109100000030150000834262000015289121763364040000000ACH        0
20191111BI2019111109100000030160000834262000001116422763364040000000ACH        0
20191111BI2019111109100000030170000834263000000498011287090040000000ACH        0
20191111BI2019111109100000030180000834304000002922004050900040000000ACH        0
20191111BI2019111109100000030190000834315000006867902179365040000000ACH        0
20191111BI2019111109100000030200000834318000000673636799486040000000ACH        0
20191111BI2019111109100000030210000834336000001076795476424040000000ACH        0
20191111LT201911110910000000003001210012100216648621                      164508
20191111TT201911110910000000003001210012100216648621                      164508